{
	"data": {
		"bytecode": {
			"linkReferences": {},
			"object": "60c0604052600660808190527f616263646566000000000000000000000000000000000000000000000000000060a090815261003e9160009190610051565b5034801561004b57600080fd5b506100ec565b828054600181600116156101000203166002900490600052602060002090601f016020900481019282601f1061009257805160ff19168380011785556100bf565b828001600101855582156100bf579182015b828111156100bf5782518255916020019190600101906100a4565b506100cb9291506100cf565b5090565b6100e991905b808211156100cb57600081556001016100d5565b90565b6102a7806100fb6000396000f30060806040526004361061004b5763ffffffff7c01000000000000000000000000000000000000000000000000000000006000350416637b8a18988114610050578063c2722ecc146100ab575b600080fd5b34801561005c57600080fd5b506040805160206004803580820135601f81018490048402850184019095528484526100a99436949293602493928401919081908401838280828437509497506101359650505050505050565b005b3480156100b757600080fd5b506100c061014c565b6040805160208082528351818301528351919283929083019185019080838360005b838110156100fa5781810151838201526020016100e2565b50505050905090810190601f1680156101275780820380516001836020036101000a031916815260200191505b509250505060405180910390f35b80516101489060009060208401906101e3565b5050565b60008054604080516020601f60026000196101006001881615020190951694909404938401819004810282018101909252828152606093909290918301828280156101d85780601f106101ad576101008083540402835291602001916101d8565b820191906000526020600020905b8154815290600101906020018083116101bb57829003601f168201915b505050505090505b90565b828054600181600116156101000203166002900490600052602060002090601f016020900481019282601f1061022457805160ff1916838001178555610251565b82800160010185558215610251579182015b82811115610251578251825591602001919060010190610236565b5061025d929150610261565b5090565b6101e091905b8082111561025d57600081556001016102675600a165627a7a723058206ff885c63afedb1e99f5500ddf6f0b5e0f65fb069b33e6e88982aa97840552390029",
			"opcodes": "PUSH1 0xC0 PUSH1 0x40 MSTORE PUSH1 0x6 PUSH1 0x80 DUP2 SWAP1 MSTORE PUSH32 0x6162636465660000000000000000000000000000000000000000000000000000 PUSH1 0xA0 SWAP1 DUP2 MSTORE PUSH2 0x3E SWAP2 PUSH1 0x0 SWAP2 SWAP1 PUSH2 0x51 JUMP JUMPDEST POP CALLVALUE DUP1 ISZERO PUSH2 0x4B JUMPI PUSH1 0x0 DUP1 REVERT JUMPDEST POP PUSH2 0xEC JUMP JUMPDEST DUP3 DUP1 SLOAD PUSH1 0x1 DUP2 PUSH1 0x1 AND ISZERO PUSH2 0x100 MUL SUB AND PUSH1 0x2 SWAP1 DIV SWAP1 PUSH1 0x0 MSTORE PUSH1 0x20 PUSH1 0x0 KECCAK256 SWAP1 PUSH1 0x1F ADD PUSH1 0x20 SWAP1 DIV DUP2 ADD SWAP3 DUP3 PUSH1 0x1F LT PUSH2 0x92 JUMPI DUP1 MLOAD PUSH1 0xFF NOT AND DUP4 DUP1 ADD OR DUP6 SSTORE PUSH2 0xBF JUMP JUMPDEST DUP3 DUP1 ADD PUSH1 0x1 ADD DUP6 SSTORE DUP3 ISZERO PUSH2 0xBF JUMPI SWAP2 DUP3 ADD JUMPDEST DUP3 DUP2 GT ISZERO PUSH2 0xBF JUMPI DUP3 MLOAD DUP3 SSTORE SWAP2 PUSH1 0x20 ADD SWAP2 SWAP1 PUSH1 0x1 ADD SWAP1 PUSH2 0xA4 JUMP JUMPDEST POP PUSH2 0xCB SWAP3 SWAP2 POP PUSH2 0xCF JUMP JUMPDEST POP SWAP1 JUMP JUMPDEST PUSH2 0xE9 SWAP2 SWAP1 JUMPDEST DUP1 DUP3 GT ISZERO PUSH2 0xCB JUMPI PUSH1 0x0 DUP2 SSTORE PUSH1 0x1 ADD PUSH2 0xD5 JUMP JUMPDEST SWAP1 JUMP JUMPDEST PUSH2 0x2A7 DUP1 PUSH2 0xFB PUSH1 0x0 CODECOPY PUSH1 0x0 RETURN STOP PUSH1 0x80 PUSH1 0x40 MSTORE PUSH1 0x4 CALLDATASIZE LT PUSH2 0x4B JUMPI PUSH4 0xFFFFFFFF PUSH29 0x100000000000000000000000000000000000000000000000000000000 PUSH1 0x0 CALLDATALOAD DIV AND PUSH4 0x7B8A1898 DUP2 EQ PUSH2 0x50 JUMPI DUP1 PUSH4 0xC2722ECC EQ PUSH2 0xAB JUMPI JUMPDEST PUSH1 0x0 DUP1 REVERT JUMPDEST CALLVALUE DUP1 ISZERO PUSH2 0x5C JUMPI PUSH1 0x0 DUP1 REVERT JUMPDEST POP PUSH1 0x40 DUP1 MLOAD PUSH1 0x20 PUSH1 0x4 DUP1 CALLDATALOAD DUP1 DUP3 ADD CALLDATALOAD PUSH1 0x1F DUP2 ADD DUP5 SWAP1 DIV DUP5 MUL DUP6 ADD DUP5 ADD SWAP1 SWAP6 MSTORE DUP5 DUP5 MSTORE PUSH2 0xA9 SWAP5 CALLDATASIZE SWAP5 SWAP3 SWAP4 PUSH1 0x24 SWAP4 SWAP3 DUP5 ADD SWAP2 SWAP1 DUP2 SWAP1 DUP5 ADD DUP4 DUP3 DUP1 DUP3 DUP5 CALLDATACOPY POP SWAP5 SWAP8 POP PUSH2 0x135 SWAP7 POP POP POP POP POP POP POP JUMP JUMPDEST STOP JUMPDEST CALLVALUE DUP1 ISZERO PUSH2 0xB7 JUMPI PUSH1 0x0 DUP1 REVERT JUMPDEST POP PUSH2 0xC0 PUSH2 0x14C JUMP JUMPDEST PUSH1 0x40 DUP1 MLOAD PUSH1 0x20 DUP1 DUP3 MSTORE DUP4 MLOAD DUP2 DUP4 ADD MSTORE DUP4 MLOAD SWAP2 SWAP3 DUP4 SWAP3 SWAP1 DUP4 ADD SWAP2 DUP6 ADD SWAP1 DUP1 DUP4 DUP4 PUSH1 0x0 JUMPDEST DUP4 DUP2 LT ISZERO PUSH2 0xFA JUMPI DUP2 DUP2 ADD MLOAD DUP4 DUP3 ADD MSTORE PUSH1 0x20 ADD PUSH2 0xE2 JUMP JUMPDEST POP POP POP POP SWAP1 POP SWAP1 DUP2 ADD SWAP1 PUSH1 0x1F AND DUP1 ISZERO PUSH2 0x127 JUMPI DUP1 DUP3 SUB DUP1 MLOAD PUSH1 0x1 DUP4 PUSH1 0x20 SUB PUSH2 0x100 EXP SUB NOT AND DUP2 MSTORE PUSH1 0x20 ADD SWAP2 POP JUMPDEST POP SWAP3 POP POP POP PUSH1 0x40 MLOAD DUP1 SWAP2 SUB SWAP1 RETURN JUMPDEST DUP1 MLOAD PUSH2 0x148 SWAP1 PUSH1 0x0 SWAP1 PUSH1 0x20 DUP5 ADD SWAP1 PUSH2 0x1E3 JUMP JUMPDEST POP POP JUMP JUMPDEST PUSH1 0x0 DUP1 SLOAD PUSH1 0x40 DUP1 MLOAD PUSH1 0x20 PUSH1 0x1F PUSH1 0x2 PUSH1 0x0 NOT PUSH2 0x100 PUSH1 0x1 DUP9 AND ISZERO MUL ADD SWAP1 SWAP6 AND SWAP5 SWAP1 SWAP5 DIV SWAP4 DUP5 ADD DUP2 SWAP1 DIV DUP2 MUL DUP3 ADD DUP2 ADD SWAP1 SWAP3 MSTORE DUP3 DUP2 MSTORE PUSH1 0x60 SWAP4 SWAP1 SWAP3 SWAP1 SWAP2 DUP4 ADD DUP3 DUP3 DUP1 ISZERO PUSH2 0x1D8 JUMPI DUP1 PUSH1 0x1F LT PUSH2 0x1AD JUMPI PUSH2 0x100 DUP1 DUP4 SLOAD DIV MUL DUP4 MSTORE SWAP2 PUSH1 0x20 ADD SWAP2 PUSH2 0x1D8 JUMP JUMPDEST DUP3 ADD SWAP2 SWAP1 PUSH1 0x0 MSTORE PUSH1 0x20 PUSH1 0x0 KECCAK256 SWAP1 JUMPDEST DUP2 SLOAD DUP2 MSTORE SWAP1 PUSH1 0x1 ADD SWAP1 PUSH1 0x20 ADD DUP1 DUP4 GT PUSH2 0x1BB JUMPI DUP3 SWAP1 SUB PUSH1 0x1F AND DUP3 ADD SWAP2 JUMPDEST POP POP POP POP POP SWAP1 POP JUMPDEST SWAP1 JUMP JUMPDEST DUP3 DUP1 SLOAD PUSH1 0x1 DUP2 PUSH1 0x1 AND ISZERO PUSH2 0x100 MUL SUB AND PUSH1 0x2 SWAP1 DIV SWAP1 PUSH1 0x0 MSTORE PUSH1 0x20 PUSH1 0x0 KECCAK256 SWAP1 PUSH1 0x1F ADD PUSH1 0x20 SWAP1 DIV DUP2 ADD SWAP3 DUP3 PUSH1 0x1F LT PUSH2 0x224 JUMPI DUP1 MLOAD PUSH1 0xFF NOT AND DUP4 DUP1 ADD OR DUP6 SSTORE PUSH2 0x251 JUMP JUMPDEST DUP3 DUP1 ADD PUSH1 0x1 ADD DUP6 SSTORE DUP3 ISZERO PUSH2 0x251 JUMPI SWAP2 DUP3 ADD JUMPDEST DUP3 DUP2 GT ISZERO PUSH2 0x251 JUMPI DUP3 MLOAD DUP3 SSTORE SWAP2 PUSH1 0x20 ADD SWAP2 SWAP1 PUSH1 0x1 ADD SWAP1 PUSH2 0x236 JUMP JUMPDEST POP PUSH2 0x25D SWAP3 SWAP2 POP PUSH2 0x261 JUMP JUMPDEST POP SWAP1 JUMP JUMPDEST PUSH2 0x1E0 SWAP2 SWAP1 JUMPDEST DUP1 DUP3 GT ISZERO PUSH2 0x25D JUMPI PUSH1 0x0 DUP2 SSTORE PUSH1 0x1 ADD PUSH2 0x267 JUMP STOP LOG1 PUSH6 0x627A7A723058 KECCAK256 PUSH16 0xF885C63AFEDB1E99F5500DDF6F0B5E0F PUSH6 0xFB069B33E6E8 DUP10 DUP3 0xaa SWAP8 DUP5 SDIV MSTORE CODECOPY STOP 0x29 "
		},
		"gasEstimates": {
			"creation": {
				"codeDepositCost": "135800",
				"executionCost": "infinite",
				"totalCost": "infinite"
			},
			"external": {
				"getStore()": "infinite",
				"setStore(string)": "infinite"
			}
		},
		"methodIdentifiers": {
			"getStore()": "c2722ecc",
			"setStore(string)": "7b8a1898"
		}
	},
	"abi": [
		{
			"constant": false,
			"inputs": [
				{
					"name": "_value",
					"type": "string"
				}
			],
			"name": "setStore",
			"outputs": [],
			"payable": false,
			"stateMutability": "nonpayable",
			"type": "function"
		},
		{
			"constant": true,
			"inputs": [],
			"name": "getStore",
			"outputs": [
				{
					"name": "",
					"type": "string"
				}
			],
			"payable": false,
			"stateMutability": "view",
			"type": "function"
		}
	]
}